{
  "_format": "hh-sol-artifact-1",
  "contractName": "Twitter",
  "sourceName": "contracts/Twitter.sol",
  "abi": [
    {
      "inputs": [],
      "stateMutability": "nonpayable",
      "type": "constructor"
    },
    {
      "anonymous": false,
      "inputs": [
        {
          "indexed": true,
          "internalType": "address",
          "name": "owner",
          "type": "address"
        },
        {
          "indexed": true,
          "internalType": "address",
          "name": "approved",
          "type": "address"
        },
        {
          "indexed": true,
          "internalType": "uint256",
          "name": "tokenId",
          "type": "uint256"
        }
      ],
      "name": "Approval",
      "type": "event"
    },
    {
      "anonymous": false,
      "inputs": [
        {
          "indexed": true,
          "internalType": "address",
          "name": "owner",
          "type": "address"
        },
        {
          "indexed": true,
          "internalType": "address",
          "name": "operator",
          "type": "address"
        },
        {
          "indexed": false,
          "internalType": "bool",
          "name": "approved",
          "type": "bool"
        }
      ],
      "name": "ApprovalForAll",
      "type": "event"
    },
    {
      "anonymous": false,
      "inputs": [
        {
          "indexed": false,
          "internalType": "uint256",
          "name": "_fromTokenId",
          "type": "uint256"
        },
        {
          "indexed": false,
          "internalType": "uint256",
          "name": "_toTokenId",
          "type": "uint256"
        }
      ],
      "name": "BatchMetadataUpdate",
      "type": "event"
    },
    {
      "anonymous": false,
      "inputs": [
        {
          "indexed": false,
          "internalType": "uint256",
          "name": "_tokenId",
          "type": "uint256"
        }
      ],
      "name": "MetadataUpdate",
      "type": "event"
    },
    {
      "anonymous": false,
      "inputs": [
        {
          "indexed": false,
          "internalType": "uint256",
          "name": "id",
          "type": "uint256"
        },
        {
          "indexed": false,
          "internalType": "string",
          "name": "hash",
          "type": "string"
        },
        {
          "indexed": false,
          "internalType": "uint256",
          "name": "tipAmount",
          "type": "uint256"
        },
        {
          "indexed": false,
          "internalType": "address payable",
          "name": "author",
          "type": "address"
        }
      ],
      "name": "PostCreated",
      "type": "event"
    },
    {
      "anonymous": false,
      "inputs": [
        {
          "indexed": false,
          "internalType": "uint256",
          "name": "id",
          "type": "uint256"
        },
        {
          "indexed": false,
          "internalType": "string",
          "name": "hash",
          "type": "string"
        },
        {
          "indexed": false,
          "internalType": "uint256",
          "name": "tipAmount",
          "type": "uint256"
        },
        {
          "indexed": false,
          "internalType": "address payable",
          "name": "author",
          "type": "address"
        }
      ],
      "name": "PostTipped",
      "type": "event"
    },
    {
      "anonymous": false,
      "inputs": [
        {
          "indexed": true,
          "internalType": "address",
          "name": "from",
          "type": "address"
        },
        {
          "indexed": true,
          "internalType": "address",
          "name": "to",
          "type": "address"
        },
        {
          "indexed": true,
          "internalType": "uint256",
          "name": "tokenId",
          "type": "uint256"
        }
      ],
      "name": "Transfer",
      "type": "event"
    },
    {
      "inputs": [
        {
          "internalType": "address",
          "name": "to",
          "type": "address"
        },
        {
          "internalType": "uint256",
          "name": "tokenId",
          "type": "uint256"
        }
      ],
      "name": "approve",
      "outputs": [],
      "stateMutability": "nonpayable",
      "type": "function"
    },
    {
      "inputs": [
        {
          "internalType": "address",
          "name": "owner",
          "type": "address"
        }
      ],
      "name": "balanceOf",
      "outputs": [
        {
          "internalType": "uint256",
          "name": "",
          "type": "uint256"
        }
      ],
      "stateMutability": "view",
      "type": "function"
    },
    {
      "inputs": [],
      "name": "getAllPosts",
      "outputs": [
        {
          "components": [
            {
              "internalType": "uint256",
              "name": "tweetId",
              "type": "uint256"
            },
            {
              "internalType": "string",
              "name": "hash",
              "type": "string"
            },
            {
              "internalType": "uint256",
              "name": "tipAmount",
              "type": "uint256"
            },
            {
              "internalType": "address payable",
              "name": "author",
              "type": "address"
            }
          ],
          "internalType": "struct Twitter.Post[]",
          "name": "_posts",
          "type": "tuple[]"
        }
      ],
      "stateMutability": "view",
      "type": "function"
    },
    {
      "inputs": [
        {
          "internalType": "uint256",
          "name": "tokenId",
          "type": "uint256"
        }
      ],
      "name": "getApproved",
      "outputs": [
        {
          "internalType": "address",
          "name": "",
          "type": "address"
        }
      ],
      "stateMutability": "view",
      "type": "function"
    },
    {
      "inputs": [],
      "name": "getMyNfts",
      "outputs": [
        {
          "internalType": "uint256[]",
          "name": "_postIds",
          "type": "uint256[]"
        }
      ],
      "stateMutability": "view",
      "type": "function"
    },
    {
      "inputs": [
        {
          "internalType": "address",
          "name": "owner",
          "type": "address"
        },
        {
          "internalType": "address",
          "name": "operator",
          "type": "address"
        }
      ],
      "name": "isApprovedForAll",
      "outputs": [
        {
          "internalType": "bool",
          "name": "",
          "type": "bool"
        }
      ],
      "stateMutability": "view",
      "type": "function"
    },
    {
      "inputs": [
        {
          "internalType": "string",
          "name": "_tokenURI",
          "type": "string"
        }
      ],
      "name": "mintNFT",
      "outputs": [
        {
          "internalType": "uint256",
          "name": "",
          "type": "uint256"
        }
      ],
      "stateMutability": "nonpayable",
      "type": "function"
    },
    {
      "inputs": [],
      "name": "name",
      "outputs": [
        {
          "internalType": "string",
          "name": "",
          "type": "string"
        }
      ],
      "stateMutability": "view",
      "type": "function"
    },
    {
      "inputs": [
        {
          "internalType": "uint256",
          "name": "tokenId",
          "type": "uint256"
        }
      ],
      "name": "ownerOf",
      "outputs": [
        {
          "internalType": "address",
          "name": "",
          "type": "address"
        }
      ],
      "stateMutability": "view",
      "type": "function"
    },
    {
      "inputs": [],
      "name": "postCounter",
      "outputs": [
        {
          "internalType": "uint256",
          "name": "",
          "type": "uint256"
        }
      ],
      "stateMutability": "view",
      "type": "function"
    },
    {
      "inputs": [
        {
          "internalType": "uint256",
          "name": "",
          "type": "uint256"
        }
      ],
      "name": "posts",
      "outputs": [
        {
          "internalType": "uint256",
          "name": "tweetId",
          "type": "uint256"
        },
        {
          "internalType": "string",
          "name": "hash",
          "type": "string"
        },
        {
          "internalType": "uint256",
          "name": "tipAmount",
          "type": "uint256"
        },
        {
          "internalType": "address payable",
          "name": "author",
          "type": "address"
        }
      ],
      "stateMutability": "view",
      "type": "function"
    },
    {
      "inputs": [
        {
          "internalType": "address",
          "name": "",
          "type": "address"
        }
      ],
      "name": "profiles",
      "outputs": [
        {
          "internalType": "uint256",
          "name": "",
          "type": "uint256"
        }
      ],
      "stateMutability": "view",
      "type": "function"
    },
    {
      "inputs": [
        {
          "internalType": "address",
          "name": "from",
          "type": "address"
        },
        {
          "internalType": "address",
          "name": "to",
          "type": "address"
        },
        {
          "internalType": "uint256",
          "name": "tokenId",
          "type": "uint256"
        }
      ],
      "name": "safeTransferFrom",
      "outputs": [],
      "stateMutability": "nonpayable",
      "type": "function"
    },
    {
      "inputs": [
        {
          "internalType": "address",
          "name": "from",
          "type": "address"
        },
        {
          "internalType": "address",
          "name": "to",
          "type": "address"
        },
        {
          "internalType": "uint256",
          "name": "tokenId",
          "type": "uint256"
        },
        {
          "internalType": "bytes",
          "name": "data",
          "type": "bytes"
        }
      ],
      "name": "safeTransferFrom",
      "outputs": [],
      "stateMutability": "nonpayable",
      "type": "function"
    },
    {
      "inputs": [
        {
          "internalType": "address",
          "name": "operator",
          "type": "address"
        },
        {
          "internalType": "bool",
          "name": "approved",
          "type": "bool"
        }
      ],
      "name": "setApprovalForAll",
      "outputs": [],
      "stateMutability": "nonpayable",
      "type": "function"
    },
    {
      "inputs": [
        {
          "internalType": "uint256",
          "name": "_id",
          "type": "uint256"
        }
      ],
      "name": "setProfile",
      "outputs": [],
      "stateMutability": "nonpayable",
      "type": "function"
    },
    {
      "inputs": [
        {
          "internalType": "bytes4",
          "name": "interfaceId",
          "type": "bytes4"
        }
      ],
      "name": "supportsInterface",
      "outputs": [
        {
          "internalType": "bool",
          "name": "",
          "type": "bool"
        }
      ],
      "stateMutability": "view",
      "type": "function"
    },
    {
      "inputs": [],
      "name": "symbol",
      "outputs": [
        {
          "internalType": "string",
          "name": "",
          "type": "string"
        }
      ],
      "stateMutability": "view",
      "type": "function"
    },
    {
      "inputs": [
        {
          "internalType": "uint256",
          "name": "_id",
          "type": "uint256"
        }
      ],
      "name": "tipPost",
      "outputs": [],
      "stateMutability": "payable",
      "type": "function"
    },
    {
      "inputs": [],
      "name": "tokenCounter",
      "outputs": [
        {
          "internalType": "uint256",
          "name": "",
          "type": "uint256"
        }
      ],
      "stateMutability": "view",
      "type": "function"
    },
    {
      "inputs": [
        {
          "internalType": "uint256",
          "name": "tokenId",
          "type": "uint256"
        }
      ],
      "name": "tokenURI",
      "outputs": [
        {
          "internalType": "string",
          "name": "",
          "type": "string"
        }
      ],
      "stateMutability": "view",
      "type": "function"
    },
    {
      "inputs": [
        {
          "internalType": "address",
          "name": "from",
          "type": "address"
        },
        {
          "internalType": "address",
          "name": "to",
          "type": "address"
        },
        {
          "internalType": "uint256",
          "name": "tokenId",
          "type": "uint256"
        }
      ],
      "name": "transferFrom",
      "outputs": [],
      "stateMutability": "nonpayable",
      "type": "function"
    },
    {
      "inputs": [
        {
          "internalType": "string",
          "name": "_postHash",
          "type": "string"
        }
      ],
      "name": "uploadPost",
      "outputs": [],
      "stateMutability": "nonpayable",
      "type": "function"
    }
  ],
  "bytecode": "0x60806040523480156200001157600080fd5b50604051806040016040528060078152602001662a3bb4ba3a32b960c91b815250604051806040016040528060048152602001632a2baa2960e11b81525081600090816200006091906200011d565b5060016200006f82826200011d565b505050620001e9565b634e487b7160e01b600052604160045260246000fd5b600181811c90821680620000a357607f821691505b602082108103620000c457634e487b7160e01b600052602260045260246000fd5b50919050565b601f8211156200011857600081815260208120601f850160051c81016020861015620000f35750805b601f850160051c820191505b818110156200011457828155600101620000ff565b5050505b505050565b81516001600160401b0381111562000139576200013962000078565b62000151816200014a84546200008e565b84620000ca565b602080601f831160018114620001895760008415620001705750858301515b600019600386901b1c1916600185901b17855562000114565b600085815260208120601f198616915b82811015620001ba5788860151825594840194600190910190840162000199565b5085821015620001d95787850151600019600388901b60f8161c191681555b5050505050600190811b01905550565b6121c580620001f96000396000f3fe6080604052600436106101405760003560e01c806370a08231116100b6578063bbe156271161006f578063bbe1562714610396578063bdd05adb146103c3578063c87b56dd146103e3578063d082e38114610403578063e985e9c514610419578063fb37e8831461043957600080fd5b806370a08231146102ee57806374d3c1f81461030e57806385d3cb371461032157806395d89b4114610341578063a22cb46514610356578063b88d4fde1461037657600080fd5b806309b3d75e1161010857806309b3d75e146102185780630b1e7f831461023c57806323b872dd1461026c578063305611001461028c57806342842e0e146102ae5780636352211e146102ce57600080fd5b806301ffc9a714610145578063047b07bf1461017a57806306fdde031461019c578063081812fc146101be578063095ea7b3146101f6575b600080fd5b34801561015157600080fd5b50610165610160366004611a67565b610459565b60405190151581526020015b60405180910390f35b34801561018657600080fd5b5061018f610484565b6040516101719190611a84565b3480156101a857600080fd5b506101b161054f565b6040516101719190611b18565b3480156101ca57600080fd5b506101de6101d9366004611b2b565b6105e1565b6040516001600160a01b039091168152602001610171565b34801561020257600080fd5b50610216610211366004611b60565b610608565b005b34801561022457600080fd5b5061022e60085481565b604051908152602001610171565b34801561024857600080fd5b5061025c610257366004611b2b565b610722565b6040516101719493929190611b8a565b34801561027857600080fd5b50610216610287366004611bc4565b6107dd565b34801561029857600080fd5b506102a161080e565b6040516101719190611c00565b3480156102ba57600080fd5b506102166102c9366004611bc4565b6109b5565b3480156102da57600080fd5b506101de6102e9366004611b2b565b6109d0565b3480156102fa57600080fd5b5061022e610309366004611c94565b610a30565b61021661031c366004611b2b565b610ab6565b34801561032d57600080fd5b5061021661033c366004611b2b565b610d3b565b34801561034d57600080fd5b506101b1610db9565b34801561036257600080fd5b50610216610371366004611caf565b610dc8565b34801561038257600080fd5b50610216610391366004611d77565b610dd7565b3480156103a257600080fd5b5061022e6103b1366004611c94565b600a6020526000908152604090205481565b3480156103cf57600080fd5b506102166103de366004611df3565b610e0f565b3480156103ef57600080fd5b506101b16103fe366004611b2b565b610f7e565b34801561040f57600080fd5b5061022e60075481565b34801561042557600080fd5b50610165610434366004611e3c565b61108e565b34801561044557600080fd5b5061022e610454366004611df3565b6110bc565b60006001600160e01b03198216632483248360e11b148061047e575061047e826110f2565b92915050565b606061048f33610a30565b67ffffffffffffffff8111156104a7576104a7611ceb565b6040519080825280602002602001820160405280156104d0578160200160208202803683370190505b50600754909150600090815b8181101561054957336104f36102e9836001611e85565b6001600160a01b0316036105375761050c816001611e85565b84848151811061051e5761051e611e98565b60209081029190910101528261053381611eae565b9350505b8061054181611eae565b9150506104dc565b50505090565b60606000805461055e90611ec7565b80601f016020809104026020016040519081016040528092919081815260200182805461058a90611ec7565b80156105d75780601f106105ac576101008083540402835291602001916105d7565b820191906000526020600020905b8154815290600101906020018083116105ba57829003601f168201915b5050505050905090565b60006105ec82611142565b506000908152600460205260409020546001600160a01b031690565b6000610613826109d0565b9050806001600160a01b0316836001600160a01b0316036106855760405162461bcd60e51b815260206004820152602160248201527f4552433732313a20617070726f76616c20746f2063757272656e74206f776e656044820152603960f91b60648201526084015b60405180910390fd5b336001600160a01b03821614806106a157506106a1813361108e565b6107135760405162461bcd60e51b815260206004820152603d60248201527f4552433732313a20617070726f76652063616c6c6572206973206e6f7420746f60448201527f6b656e206f776e6572206f7220617070726f76656420666f7220616c6c000000606482015260840161067c565b61071d83836111a4565b505050565b6009602052600090815260409020805460018201805491929161074490611ec7565b80601f016020809104026020016040519081016040528092919081815260200182805461077090611ec7565b80156107bd5780601f10610792576101008083540402835291602001916107bd565b820191906000526020600020905b8154815290600101906020018083116107a057829003601f168201915b5050505060028301546003909301549192916001600160a01b0316905084565b6107e73382611212565b6108035760405162461bcd60e51b815260040161067c90611f01565b61071d838383611270565b606060085467ffffffffffffffff81111561082b5761082b611ceb565b60405190808252806020026020018201604052801561089057816020015b61087d604051806080016040528060008152602001606081526020016000815260200160006001600160a01b031681525090565b8152602001906001900390816108495790505b50905060015b60085481116109b15760096000828152602001908152602001600020604051806080016040529081600082015481526020016001820180546108d790611ec7565b80601f016020809104026020016040519081016040528092919081815260200182805461090390611ec7565b80156109505780601f1061092557610100808354040283529160200191610950565b820191906000526020600020905b81548152906001019060200180831161093357829003601f168201915b5050509183525050600282015460208201526003909101546001600160a01b031660409091015282610983600184611f4e565b8151811061099357610993611e98565b602002602001018190525080806109a990611eae565b915050610896565b5090565b61071d83838360405180602001604052806000815250610dd7565b6000818152600260205260408120546001600160a01b03168061047e5760405162461bcd60e51b8152602060048201526018602482015277115490cdcc8c4e881a5b9d985b1a59081d1bdad95b88125160421b604482015260640161067c565b60006001600160a01b038216610a9a5760405162461bcd60e51b815260206004820152602960248201527f4552433732313a2061646472657373207a65726f206973206e6f7420612076616044820152683634b21037bbb732b960b91b606482015260840161067c565b506001600160a01b031660009081526003602052604090205490565b600081118015610ac857506008548111155b610b0a5760405162461bcd60e51b8152602060048201526013602482015272141bdcdd08191bd95cc81b9bdd08195e1a5cdd606a1b604482015260640161067c565b60006009600083815260200190815260200160002060405180608001604052908160008201548152602001600182018054610b4490611ec7565b80601f0160208091040260200160405190810160405280929190818152602001828054610b7090611ec7565b8015610bbd5780601f10610b9257610100808354040283529160200191610bbd565b820191906000526020600020905b815481529060010190602001808311610ba057829003601f168201915b5050509183525050600282015460208201526003909101546001600160a01b03908116604090920191909152606082015191925033911603610c415760405162461bcd60e51b815260206004820152601c60248201527f596f752063616e6e6f742074697020796f7572206f776e20706f737400000000604482015260640161067c565b60608101516040516001600160a01b03909116903480156108fc02916000818181858888f19350505050158015610c7c573d6000803e3d6000fd5b503481604001818151610c8f9190611e85565b905250600082815260096020908152604090912082518155908201518291906001820190610cbd9082611faf565b506040828101516002830155606092830151600390920180546001600160a01b0319166001600160a01b03909316929092179091556020830151838201519284015191517f20988fe475351e75813672abada1dddb7ac67cbbeb81e61e1160b8329d8cdf1c93610d2f93879392611b8a565b60405180910390a15050565b33610d45826109d0565b6001600160a01b031614610da75760405162461bcd60e51b815260206004820152602360248201527f596f7520617265206e6f7420746865206f776e6572206f66207468697320746f60448201526235b2b760e91b606482015260840161067c565b336000908152600a6020526040902055565b60606001805461055e90611ec7565b610dd33383836113d4565b5050565b610de13383611212565b610dfd5760405162461bcd60e51b815260040161067c90611f01565b610e09848484846114a2565b50505050565b6000610e1a33610a30565b11610e605760405162461bcd60e51b8152602060048201526016602482015275135d5cdd081bdddb8818481b999d081d1bc81c1bdcdd60521b604482015260640161067c565b6000815111610eaa5760405162461bcd60e51b815260206004820152601660248201527548617368206d757374206e6f7420626520656d70747960501b604482015260640161067c565b60088054906000610eba83611eae565b9091555050604080516080810182526008548082526020808301858152600084860181905233606086015292835260099091529290208151815591519091906001820190610f089082611faf565b506040828101516002830155606090920151600390910180546001600160a01b0319166001600160a01b0390921691909117905560085490517fc66336337a24e513f909b3b25119854dba8385d51307dbc7d31d1b2805e19c7e91610f739184906000903390611b8a565b60405180910390a150565b6060610f8982611142565b60008281526006602052604081208054610fa290611ec7565b80601f0160208091040260200160405190810160405280929190818152602001828054610fce90611ec7565b801561101b5780601f10610ff05761010080835404028352916020019161101b565b820191906000526020600020905b815481529060010190602001808311610ffe57829003601f168201915b50505050509050600061103960408051602081019091526000815290565b9050805160000361104b575092915050565b81511561107d57808260405160200161106592919061206f565b60405160208183030381529060405292505050919050565b611086846114d5565b949350505050565b6001600160a01b03918216600090815260056020908152604080832093909416825291909152205460ff1690565b60078054600091826110cd83611eae565b91905055506110de33600754611549565b6110ea60075483611563565b505060075490565b60006001600160e01b031982166380ac58cd60e01b148061112357506001600160e01b03198216635b5e139f60e01b145b8061047e57506301ffc9a760e01b6001600160e01b031983161461047e565b6000818152600260205260409020546001600160a01b03166111a15760405162461bcd60e51b8152602060048201526018602482015277115490cdcc8c4e881a5b9d985b1a59081d1bdad95b88125160421b604482015260640161067c565b50565b600081815260046020526040902080546001600160a01b0319166001600160a01b03841690811790915581906111d9826109d0565b6001600160a01b03167f8c5be1e5ebec7d5bd14f71427d1e84f3dd0314c0f7b2291e5b200ac8c7c3b92560405160405180910390a45050565b60008061121e836109d0565b9050806001600160a01b0316846001600160a01b031614806112455750611245818561108e565b806110865750836001600160a01b031661125e846105e1565b6001600160a01b031614949350505050565b826001600160a01b0316611283826109d0565b6001600160a01b0316146112a95760405162461bcd60e51b815260040161067c9061209e565b6001600160a01b03821661130b5760405162461bcd60e51b8152602060048201526024808201527f4552433732313a207472616e7366657220746f20746865207a65726f206164646044820152637265737360e01b606482015260840161067c565b826001600160a01b031661131e826109d0565b6001600160a01b0316146113445760405162461bcd60e51b815260040161067c9061209e565b600081815260046020908152604080832080546001600160a01b03199081169091556001600160a01b0387811680865260038552838620805460001901905590871680865283862080546001019055868652600290945282852080549092168417909155905184937fddf252ad1be2c89b69c2b068fc378daa952ba7f163c4a11628f55a4df523b3ef91a4505050565b816001600160a01b0316836001600160a01b0316036114355760405162461bcd60e51b815260206004820152601960248201527f4552433732313a20617070726f766520746f2063616c6c657200000000000000604482015260640161067c565b6001600160a01b03838116600081815260056020908152604080832094871680845294825291829020805460ff191686151590811790915591519182527f17307eab39ab6107e8899845ad3d59bd9653f200f220920489ca2b5937696c31910160405180910390a3505050565b6114ad848484611270565b6114b984848484611627565b610e095760405162461bcd60e51b815260040161067c906120e3565b60606114e082611142565b60006114f760408051602081019091526000815290565b905060008151116115175760405180602001604052806000815250611542565b8061152184611728565b60405160200161153292919061206f565b6040516020818303038152906040525b9392505050565b610dd38282604051806020016040528060008152506117bb565b6000828152600260205260409020546001600160a01b03166115de5760405162461bcd60e51b815260206004820152602e60248201527f45524337323155524953746f726167653a2055524920736574206f66206e6f6e60448201526d32bc34b9ba32b73a103a37b5b2b760911b606482015260840161067c565b60008281526006602052604090206115f68282611faf565b506040518281527ff8e1a15aba9398e019f0b49df1a4fde98ee17ae345cb5f6b5e2c27f5033e8ce790602001610d2f565b60006001600160a01b0384163b1561171d57604051630a85bd0160e11b81526001600160a01b0385169063150b7a029061166b903390899088908890600401612135565b6020604051808303816000875af19250505080156116a6575060408051601f3d908101601f191682019092526116a391810190612172565b60015b611703573d8080156116d4576040519150601f19603f3d011682016040523d82523d6000602084013e6116d9565b606091505b5080516000036116fb5760405162461bcd60e51b815260040161067c906120e3565b805181602001fd5b6001600160e01b031916630a85bd0160e11b149050611086565b506001949350505050565b60606000611735836117ee565b600101905060008167ffffffffffffffff81111561175557611755611ceb565b6040519080825280601f01601f19166020018201604052801561177f576020820181803683370190505b5090508181016020015b600019016f181899199a1a9b1b9c1cb0b131b232b360811b600a86061a8153600a850494508461178957509392505050565b6117c583836118c6565b6117d26000848484611627565b61071d5760405162461bcd60e51b815260040161067c906120e3565b60008072184f03e93ff9f4daa797ed6e38ed64bf6a1f0160401b831061182d5772184f03e93ff9f4daa797ed6e38ed64bf6a1f0160401b830492506040015b6d04ee2d6d415b85acef81000000008310611859576d04ee2d6d415b85acef8100000000830492506020015b662386f26fc10000831061187757662386f26fc10000830492506010015b6305f5e100831061188f576305f5e100830492506008015b61271083106118a357612710830492506004015b606483106118b5576064830492506002015b600a831061047e5760010192915050565b6001600160a01b03821661191c5760405162461bcd60e51b815260206004820181905260248201527f4552433732313a206d696e7420746f20746865207a65726f2061646472657373604482015260640161067c565b6000818152600260205260409020546001600160a01b0316156119815760405162461bcd60e51b815260206004820152601c60248201527f4552433732313a20746f6b656e20616c7265616479206d696e74656400000000604482015260640161067c565b6000818152600260205260409020546001600160a01b0316156119e65760405162461bcd60e51b815260206004820152601c60248201527f4552433732313a20746f6b656e20616c7265616479206d696e74656400000000604482015260640161067c565b6001600160a01b038216600081815260036020908152604080832080546001019055848352600290915280822080546001600160a01b0319168417905551839291907fddf252ad1be2c89b69c2b068fc378daa952ba7f163c4a11628f55a4df523b3ef908290a45050565b6001600160e01b0319811681146111a157600080fd5b600060208284031215611a7957600080fd5b813561154281611a51565b6020808252825182820181905260009190848201906040850190845b81811015611abc57835183529284019291840191600101611aa0565b50909695505050505050565b60005b83811015611ae3578181015183820152602001611acb565b50506000910152565b60008151808452611b04816020860160208601611ac8565b601f01601f19169290920160200192915050565b6020815260006115426020830184611aec565b600060208284031215611b3d57600080fd5b5035919050565b80356001600160a01b0381168114611b5b57600080fd5b919050565b60008060408385031215611b7357600080fd5b611b7c83611b44565b946020939093013593505050565b848152608060208201526000611ba36080830186611aec565b6040830194909452506001600160a01b039190911660609091015292915050565b600080600060608486031215611bd957600080fd5b611be284611b44565b9250611bf060208501611b44565b9150604084013590509250925092565b60006020808301818452808551808352604092508286019150828160051b87010184880160005b83811015611c8657603f19898403018552815160808151855288820151818a870152611c5582870182611aec565b838a0151878b01526060938401516001600160a01b0316939096019290925250509386019390860190600101611c27565b509098975050505050505050565b600060208284031215611ca657600080fd5b61154282611b44565b60008060408385031215611cc257600080fd5b611ccb83611b44565b915060208301358015158114611ce057600080fd5b809150509250929050565b634e487b7160e01b600052604160045260246000fd5b600067ffffffffffffffff80841115611d1c57611d1c611ceb565b604051601f8501601f19908116603f01168101908282118183101715611d4457611d44611ceb565b81604052809350858152868686011115611d5d57600080fd5b858560208301376000602087830101525050509392505050565b60008060008060808587031215611d8d57600080fd5b611d9685611b44565b9350611da460208601611b44565b925060408501359150606085013567ffffffffffffffff811115611dc757600080fd5b8501601f81018713611dd857600080fd5b611de787823560208401611d01565b91505092959194509250565b600060208284031215611e0557600080fd5b813567ffffffffffffffff811115611e1c57600080fd5b8201601f81018413611e2d57600080fd5b61108684823560208401611d01565b60008060408385031215611e4f57600080fd5b611e5883611b44565b9150611e6660208401611b44565b90509250929050565b634e487b7160e01b600052601160045260246000fd5b8082018082111561047e5761047e611e6f565b634e487b7160e01b600052603260045260246000fd5b600060018201611ec057611ec0611e6f565b5060010190565b600181811c90821680611edb57607f821691505b602082108103611efb57634e487b7160e01b600052602260045260246000fd5b50919050565b6020808252602d908201527f4552433732313a2063616c6c6572206973206e6f7420746f6b656e206f776e6560408201526c1c881bdc88185c1c1c9bdd9959609a1b606082015260800190565b8181038181111561047e5761047e611e6f565b601f82111561071d57600081815260208120601f850160051c81016020861015611f885750805b601f850160051c820191505b81811015611fa757828155600101611f94565b505050505050565b815167ffffffffffffffff811115611fc957611fc9611ceb565b611fdd81611fd78454611ec7565b84611f61565b602080601f8311600181146120125760008415611ffa5750858301515b600019600386901b1c1916600185901b178555611fa7565b600085815260208120601f198616915b8281101561204157888601518255948401946001909101908401612022565b508582101561205f5787850151600019600388901b60f8161c191681555b5050505050600190811b01905550565b60008351612081818460208801611ac8565b835190830190612095818360208801611ac8565b01949350505050565b60208082526025908201527f4552433732313a207472616e736665722066726f6d20696e636f72726563742060408201526437bbb732b960d91b606082015260800190565b60208082526032908201527f4552433732313a207472616e7366657220746f206e6f6e20455243373231526560408201527131b2b4bb32b91034b6b83632b6b2b73a32b960711b606082015260800190565b6001600160a01b038581168252841660208201526040810183905260806060820181905260009061216890830184611aec565b9695505050505050565b60006020828403121561218457600080fd5b815161154281611a5156fea26469706673582212200ddcb216568018b8b2702fe7c3b1a2d7b70840b8382e27a3a19af1576c9ea01b64736f6c63430008130033",
  "linkReferences": {},
  "deployedLinkReferences": {}
}